:02000000C12B12
:10077E0003340034BF23F000C023F1008301C72BE4
:10078E0083160313061486108312061CCF2BD02B50
:10079E00E42B033070067104031DD62BD72BE42BEC
:1007AE00DF2BDF2B86140130F0000030F100DF2B41
:1007BE000618E22BE32BD92BE42B061CE72BE82B98
:1007CE00CB2B013070067104031DEE2BEF2BCB2BC0
:1007DE00F72BF72B86100330F0000030F100F72BCB
:1007EE000618FA2BFB2BF12BCB2BCB2BCB2BCB2B9E
:0207FE000028D1
:02400E0070FF41
:00000001FF
